:020000020000FC
:10000000A0E009E109B9549A539AF0E0E4EAA39513
:100010001591103039F01CB95E9B0C940C005E9A5F
:100020000C940800D1E0C0E05F9B0C9414002CB14C
:1000300029932D3019F05F9A0C941400D1E0C0E0A0
:10004000F0E0E4EB159129912D3021F01217D1F356
:100050000C943600F0E0EAEB15911CB9103001F178
:100060005E9B0C9430005E9A0C942C00F0E0E8EC5F
:1000700015911CB9A33041F0103039F25E9B0C94FD
:100080003E005E9A0C943800F0E0E0ED15911CB94A
:10009000103031F05E9B0C944A005E9A0C9446003E
:1000A0000C945000656E7465722070617373776F85
:1000B00072640000616263640000206163657373B1
:1000C00020737563657373002064656E69656400F1
:0A00D00020626C6F636B6564000032
:00000001FF
