:100000000C9446000C945D000C945D000C945D0013
:100010000C945D000C945D000C945D000C945D00EC
:100020000C945D000C945D000C945D000C945D00DC
:100030000C945D000C945D000C945D000C945D00CC
:100040000C945D000C945D000C945D000C945D00BC
:100050000C945D000C945D000C945D000C945D00AC
:100060000C945D000C945D000C945D000C945D009C
:100070000C945D000C945D000C945D000C945D008C
:100080000C945D000C945D000C945D0011241FBE67
:10009000CFEFD0E1DEBFCDBF11E0A0E0B1E0EEEDEB
:1000A000F0E000E00BBF02C007900D92A030B10756
:1000B000D9F70E945F000C946D000C94000080E65C
:1000C00087B98FEF8ABB80EC86B990EC349BFECF6A
:0E00D00085B1349A8BBB96B9F9CFF894FFCF67
:00000001FF
