:100000000C9446000C945D000C945D000C945D0013
:100010000C945D000C945D000C945D000C945D00EC
:100020000C945D000C945D000C945D000C945D00DC
:100030000C945D000C945D000C945D000C945D00CC
:100040000C945D000C945D000C945D000C945D00BC
:100050000C945D000C945D000C945D000C945D00AC
:100060000C945D000C945D000C945D000C945D009C
:100070000C945D000C945D000C945D000C945D008C
:100080000C945D000C945D000C945D0011241FBE67
:10009000CFEFD0E1DEBFCDBF11E0A0E0B1E0E2E004
:1000A000F1E000E00BBF02C007900D92A030B10755
:1000B000D9F70E945F000C947F000C94000089E146
:1000C00089B988E08AB980E687B98FEF8ABB80EC6E
:1000D00086B9E0E1F7E270EC349BFECF65B1262FE4
:1000E00030E0349ACF010197F1F74217530721F01E
:1000F0006CB95E9BFECF5E9A76B9A901EDCFF894FC
:02010000FFCF2F
:00000001FF
