:100000000C9446000C945D000C945D000C945D0013
:100010000C945D000C945D000C945D000C945D00EC
:100020000C945D000C945D000C945D000C945D00DC
:100030000C945D000C945D000C945D000C945D00CC
:100040000C945D000C945D000C945D000C945D00BC
:100050000C945D000C945D000C945D000C945D00AC
:100060000C945D000C945D000C945D000C945D009C
:100070000C945D000C945D000C945D000C945D008C
:100080000C945D000C945D000C945D0011241FBE67
:10009000CFEFD0E1DEBFCDBF11E0A0E0B1E0E6EEF2
:1000A000F0E000E00BBF02C007900D92A030B10756
:1000B000D9F70E945F000C9471000C9400008EE050
:1000C00083BF8CE981BF8FEF8ABB20E030E006B6AA
:1000D00001FEFDCF209530952BBB86B7826086BF91
:0600E000F6CFF894FFCFFB
:00000001FF
