:100000000C9446000C945D000C945D000C945D0013
:100010000C945D000C945D000C945D000C945D00EC
:100020000C945D000C945D000C945D000C945D00DC
:100030000C945D000C945D000C945D000C945D00CC
:100040000C945D000C945D000C945D000C945D00BC
:100050000C945D000C945D000C945D000C945D00AC
:100060000C945D000C945D000C945D000C945D009C
:100070000C945D000C945D000C945D000C945D008C
:100080000C945D000C945D000C945D0011241FBE67
:10009000CFEFD0E1DEBFCDBF11E0A0E0B1E0E4E5FD
:1000A000F2E000E00BBF02C007900D92A030B10754
:1000B000D9F70E941F010C9428010C940000A89A03
:1000C000A998AA98AB989C9B04C09C99FECF80E30A
:1000D00008959D9B04C09D99FECF84E308959E9B47
:1000E00004C09E99FECF88E308959F9B04C09F990A
:1000F000FECF83E60895A99AA898AA98AB989C9BEE
:1001000004C09C99FECF81E308959D9B04C09D99F6
:10011000FECF85E308959E9B04C09E99FECF89E3A0
:1001200008959F9B04C09F99FECF84E60895AA9AE4
:10013000A998A898AB989C9B04C09C99FECF82E399
:1001400008959D9B04C09D99FECF86E308959E9BD4
:1001500004C09E99FECF81E608959F9B04C09F999D
:10016000FECF85E60895AB9AA998AA98A8989C9B7B
:1001700004C09C99FECF83E308959D9B04C09D9984
:10018000FECF87E308959E9B04C09E99FECF82E632
:1001900008959F9B94CF9F99FECF86E60895C098BF
:1001A000C1988BBBC29A80E29EE40197F1F7C29896
:1001B0000895EF92FF920F931F93DF93CF93CDB7E4
:1001C000DEB72A970FB6F894DEBF0FBECDBF8FEF14
:1001D00087BB8ABBFE0131968AE0DF011D928A95BA
:1001E000E9F788E3898386E08A838CE08B8380E863
:1001F0008C838F0186E0E82EF12CEC0EFD1EF801B9
:1002000081918F0190E00E94CF000E151F05B9F774
:100210002A960FB6F894DEBF0FBECDBFCF91DF9107
:100220001F910F91FF90EF900895C09AC1988BBBDA
:10023000C29A80E29EE40197F1F7C29808958FEF89
:1002400084BB0E94D9000E945F000E941501FBCF71
:04025000F894FFCF50
:00000001FF
