:100000000C9446000C945D000C945D000C945D0013
:100010000C945D000C945D000C945D000C945D00EC
:100020000C945D000C945D000C945D000C945D00DC
:100030000C945D000C945D000C945D000C945D00CC
:100040000C945D000C945D000C945D000C945D00BC
:100050000C945D000C945D000C945D000C945D00AC
:100060000C945D000C945D000C945D000C945D009C
:100070000C945D000C945D000C945D000C945D008C
:100080000C945D000C945D000C945D0011241FBE67
:10009000CFEFD0E1DEBFCDBF11E0A0E0B1E0EAE8F4
:1000A000F1E000E00BBF02C007900D92AA30B1074B
:1000B000D9F70E9473000C94C3000C940000A89818
:1000C000A9988BBBAA9A80E29EE40197F1F7AA98BF
:1000D0000895A89AA9988BBBAA9A80E29EE40197FA
:1000E000F1F7AA980895EF92FF920F931F93DF9371
:1000F000CF93CDB7DEB764970FB6F894DEBF0FBECF
:10010000CDBFFE0131968AE0DF011D928A95E9F7A5
:1001100088E3898386E08A838CE08B8380E88C8304
:10012000DE011B96E0E0F1E086E001900D92815047
:10013000E1F7198A1A8A1B8A1C8A8FEF84BB8ABB53
:1001400087BB8E010F5F1F4F96E0E92EF12CEC0E5E
:10015000FD1EF80181918F0190E00E945F000E1555
:100160001F05B9F78E01055F1F4F82E1E82EF12CC4
:10017000EC0EFD1ED8018D918D010E9469000E15B7
:0A0180001F05C1F7FFCFF894FFCF71
:0A018A0048454C4C4F0000000000F7
:00000001FF
