:100000000C9446000C945D000C945D000C945D0013
:100010000C945D000C945D000C945D000C945D00EC
:100020000C945D000C945D000C945D000C945D00DC
:100030000C945D000C945D000C945D000C945D00CC
:100040000C945D000C945D000C945D000C945D00BC
:100050000C945D000C945D000C945D000C945D00AC
:100060000C945D000C945D000C945D000C945D009C
:100070000C945D000C945D000C945D000C945D008C
:100080000C945D000C945D000C945D0011241FBE67
:10009000CFEFD0E1DEBFCDBF11E0A0E0B1E0E4E002
:1000A000F1E000E00BBF02C007900D92A030B10755
:1000B000D9F70E945F000C9480000C9400008FEF31
:1000C00087BB80E687B980EC86B970EC68E054E0C5
:1000D00041E0349BFECF85B1282F30E0203431053C
:1000E00014F448BB0BC0C901CF978136910510F4B9
:1000F00058BB04C0203A31050CF068BB76B9E9CF93
:04010000F894FFCFA1
:00000001FF
