:100000000C9446000C945D000C945D000C945D0013
:100010000C945D000C945D000C945D000C945D00EC
:100020000C945D000C945D000C945D000C945D00DC
:100030000C945D000C945D000C945D000C945D00CC
:100040000C945D000C945D000C945D000C945D00BC
:100050000C945D000C945D000C945D000C945D00AC
:100060000C945D000C945D000C945D000C945D009C
:100070000C945D000C945D000C945D000C945D008C
:100080000C945D000C945D000C945D0011241FBE67
:10009000CFEFD0E1DEBFCDBF11E0A0E0B1E0E0E7FF
:1000A000F2E000E00BBF02C007900D92A035B1074F
:1000B000D9F70E945F000C9436010C9400008F92D7
:1000C0009F92AF92BF92CF92DF92EF92FF920F93E7
:1000D0001F93DF93CF93CDB7DEB7CF55D0400FB688
:1000E000F894DEBF0FBECDBFDE015096E0E0F1E038
:1000F00085E001900D928150E1F7FE0175968FE049
:10010000DF011D928A95E9F7DE019496E4E1F1E0C2
:100110008BE001900D928150E1F7FE01BF9689E0DE
:10012000DF011D928A95E9F7DE01D896E8E2F1E059
:1001300088E001900D928150E1F7FE01E05CFF4FF5
:100140008CE0DF011D928A95E9F7FE01E45BFF4F29
:100150009F014CE351E087E0DA010D90AD01D90138
:100160000D929D018150C1F737968DE0DF011D9200
:100170008A95E9F788E18AB989E189B920E030E018
:1001800054E2852E912C8C0E9D1E8E010F5F1F4F09
:1001900040E1A42EB12CAC0EBD1E9CE4C92ED12C86
:1001A000CC0EDD1E8FE0E82EF12CEC0CFD1C0AC0FD
:1001B000F401E20FF31F80818CB95E9BFECF5E9A43
:1001C0002F5F3F4F2F3031059CF3A0E0B0E001C01E
:1001D0005F9A5F9BFDCF8CB18D3031F0F801EA0F53
:1001E000FB1F80831196F5CFA00FB11F1C92C80191
:1001F000B5010E942D01009779F4FE01F8969F0148
:10020000215F3F4F80818CB95E9BFECF5E9A319615
:10021000E217F307B9F70DC0F60180818CB95E9B38
:10022000FECF5E9A3196EE15FF05B9F720E030E07B
:10023000C9CFC15ADF4F0FB6F894DEBF0FBECDBF96
:10024000CF91DF911F910F91FF90EF90DF90CF90B2
:10025000BF90AF909F908F900895FB01DC018D912E
:10026000019080190110D9F3990B0895F894FFCFEC
:1002700061626364000000000000000000000000F4
:1002800000000000656E7465722070617373000079
:1002900000000000000000006772616E6465640089
:1002A00000000000000000000000000064656E69AE
:1002B0006564000000000000000000000000000075
:00000001FF
