:100000000C9446000C9465000C9465000C946500FB
:100010000C9465000C9465000C9465000C946500CC
:100020000C9465000C9465000C9465000C946500BC
:100030000C9465000C9465000C9465000C946500AC
:100040000C9465000C9465000C9467000C9465009A
:100050000C9465000C9465000C9465000C9465008C
:100060000C9465000C9465000C9465000C9465007C
:100070000C9465000C9465000C9465000C9465006C
:100080000C9465000C9465000C94650011241FBE4F
:10009000CFEFD0E1DEBFCDBF11E0A0E0B1E0E4E002
:1000A000F1E000E00BBF02C007900D92A030B10755
:1000B000D9F711E0A0E0B1E001C01D92A130B10775
:1000C000E1F70E947A000C9480000C9400001F92CB
:1000D0000F920FB60F9211248F938CB18093000171
:1000E0008CB95E9BFECF5E9A8F910F900FBE0F90E2
:1000F0001F90189588E98AB989E189B97894FFCF6A
:04010000F894FFCFA1
:00000001FF
