:100000000C9446000C945D000C945D000C945D0013
:100010000C945D000C945D000C945D000C945D00EC
:100020000C945D000C945D000C945D000C945D00DC
:100030000C945D000C945D000C945D000C945D00CC
:100040000C945D000C945D000C945D000C945D00BC
:100050000C945D000C945D000C945D000C945D00AC
:100060000C945D000C945D000C945D000C945D009C
:100070000C945D000C945D000C945D000C945D008C
:100080000C945D000C945D000C945D0011241FBE67
:10009000CFEFD0E1DEBFCDBF11E0A0E0B1E0E6E1FF
:1000A000F1E000E00BBF02C007900D92A030B10755
:1000B000D9F70E945F000C9489000C9400008FEF28
:1000C00087BB1ABA20E830E040ED57E06FEF89B304
:1000D000813049F0813028F0823039F08330B9F72F
:1000E0000CC018BAF4CF68BBF2CF220F331F211512
:1000F000310551F421E030E007C0359527952115F1
:10010000310511F420E830E028BBCA010197F1F76E
:06011000DECFF894FFCFE2
:00000001FF
