:100000000C9446000C9465000C9465000C946500FB
:100010000C9465000C9465000C9465000C946500CC
:100020000C9465000C9465000C9465000C946500BC
:100030000C9465000C9465000C9465000C946500AC
:100040000C9467000C9465000C9465000C9465009A
:100050000C9465000C9465000C9465000C9465008C
:100060000C9465000C9465000C9465000C9465007C
:100070000C9465000C9465000C9465000C9465006C
:100080000C9465000C9465000C94650011241FBE4F
:10009000CFEFD0E1DEBFCDBF11E0A0E0B1E0E8E1FD
:1000A000F1E000E00BBF02C007900D92A030B10755
:1000B000D9F711E0A0E0B1E001C01D92A230B10774
:1000C000E1F70E9483000C948A000C9400001F92B8
:1000D0000F920FB60F9211248F939F93809100017E
:1000E000909101018095909590930101809300017A
:1000F0008BBB86B7816086BF9F918F910F900FBE9B
:100100000F901F9018958FEF8ABB81E083BF87BF48
:080110007894FFCFF894FFCFB3
:00000001FF
