:100000000C9446000C945D000C945D000C945D0013
:100010000C945D000C945D000C945D000C945D00EC
:100020000C945D000C945D000C945D000C945D00DC
:100030000C945D000C945D000C945D000C945D00CC
:100040000C945D000C945D000C945D000C945D00BC
:100050000C945D000C945D000C945D000C945D00AC
:100060000C945D000C945D000C945D000C945D009C
:100070000C945D000C945D000C945D000C945D008C
:100080000C945D000C945D000C945D0011241FBE67
:10009000CFEFD0E1DEBFCDBF11E0A0E0B1E0E4E101
:1000A000F1E000E00BBF02C007900D92A630B1074F
:1000B000D9F70E945F000C9488000C940000DF9335
:1000C000CF9300D000D00F92CDB7DEB7DE011196EE
:1000D000E0E0F1E085E001900D928150E1F788E0E9
:1000E0008AB989E189B920E030E0AE014F5F5F4F06
:1000F000FA01E20FF31F80818CB95E9BFECF5E9AFE
:100100002F5F3F4F243031059CF320E030E0F0CFEB
:04011000F894FFCF91
:06011400796F796F000015
:00000001FF
