:100000000C9446000C945D000C945D000C945D0013
:100010000C945D000C945D000C945D000C945D00EC
:100020000C945D000C945D000C945D000C945D00DC
:100030000C945D000C945D000C945D000C945D00CC
:100040000C945D000C945D000C945D000C945D00BC
:100050000C945D000C945D000C945D000C945D00AC
:100060000C945D000C945D000C945D000C945D009C
:100070000C945D000C945D000C945D000C945D008C
:100080000C945D000C945D000C945D0011241FBE67
:10009000CFEFD0E1DEBFCDBF11E0A0E0B1E0ECEFEB
:1000A000F0E000E00BBF02C007900D92A030B10756
:1000B000D9F70E945F000C947C000C9400008FEF35
:1000C00087BB8FE683BF8FE781BF88E18AB989E16B
:1000D00089B95F9BFECF8CB15F9A8CB95E9BFECFD6
:1000E0005E9A813619F481B7865F04C0823689F73B
:0C00F00081B78A5081BFEDCFF894FFCF9C
:00000001FF
